:080000000004040000000000f0
:020000040000fa
:104000008ff32200007324000001880000000000ec
:104010000a00070011000700000020000000e00077
:1040200002003200000002000000000058330200cd
:10403000010000000040da000000fe004440a9003a
:10404000402620000000e000030032002000200095
:10405000a00188004440a80000000600c00523001d
:10406000010020001500370062004000e080480099
:10407000910188009001ba0062004000e080480091
:10408000910188009002ba0062004000e080480080
:104090000002eb006028e10004003a000059eb0048
:1040a0008301e900fdff3e00040037006128e100C4
:1040b000010032000082eb0005000700910188003a
:1040c0001001ba000200e000e7ff3a00000005001e
:1040d000910188008002780062004000e080480082
:1040e0003559ba008301e900080032002559ba00a9
:1040f0008301e900050032000400e000f4ff320013
:1041000015d9ba008301e900f1ff3a00000006006a
:10411000c03304000100000036320400010000003a
:10412000bc270400010000006644040001000000f8
:104130008001eb000200370061f079008301e800a4
:10414000828f5100fcff3a0000000600140020009e
:104150002f013700889fbe008a9fbe008c1f780009
:10416000460107004d01330003866c006450e100f6
:104170002e0032006420e100330032006150e10083
:104180002f0032006120e1003100320085855500aa
:10419000eb07b000090020000804200005003700ec
:1041a0000804440089844c000a00310006034300df
:1041b00087834b000001530081815b00f8ff3300cf
:1041c0000203be000800a0000804440089844c00db
:1041d000f6ff3900c639dd008301730001003200ab
:1041e000130020008904d1000884d3000998a3009b
:1041f000050032000800a7000300a0008904d100d8
:104200000884d3008b05e8008904d1000884d3001a
:104210000001eb000281d2003001070001f0a10093
:104220000cf0a70001f0a000250137006420e10098
:10423000270132000801be000200be00f7ff370070
:104240006120e100220132006000b800f3ff370076
:104250000000200001f82700f0ff370003f0a20063
:10426000889fbe008a9fbe008c1f78000301070054
:104270000a0133006450e1004f0032006420e10085
:104280005200320003826c0007003b000905d00099
:104290000306d000820f54000c065d0002003900b6
:1042a00002003200890178000306780085825500fb
:1042b00004003d000003fd008103fd008502ea00cb
:1042c0008b854200840f720002003b0060001000ea
:1042d000e08018006011b8000005eb007a28e100ca
:1042e0000a00390006007800c75ddd00f707b2005c
:1042f000878075002d003700828171000a017800e7
:10430000610560008180d1000080d3008502e90052
:10431000f9ff3b00060440008784480002003b0090
:1043200060041400e0841c000988a3000700320028
:104330008a81710082817100610164008904d10069
:104340000884d3008b05e800170037000978a30024
:1043500013003a000b00e000130034008b05e90065
:104360000804440089844c000a4474000978a300be
:104370000d003a000b00e000070034008b05e90057
:104380000804440089844c0001003a000b0020001e
:104390000978a300f7ff32000001eb0002003700ac
:1043a000828171000a017800cc0007000cf0a700a0
:1043b00001f0a000c20037006420e10002003a00d2
:1043c000838f6c00c20033000801be000200be00f3
:1043d000bb0037000001be00e60007000470a70024
:1043e00003f0a10003f8a30013003a006509b1002f
:1043f00010003200090035006928e1000200350094
:1044000001002800000005000000400081804800f5
:104410008502e900fcff3a0000000600f88f420028
:10442000050035008100d1000080d3008502e8003e
:10443000fcff3a00000006008000eb0000000500d1
:10444000889fbe008a9fbe00010578000100e00041
:104450000400350008003c000000e00020003200ad
:104460000500370060001000e080180002003b00eb
:1044700001f02c001a0037000004be006011b800e3
:104480006b0920000982cf00020039000882cf00aa
:104490000441b000694252000e00320008003b00a7
:1044a00082817100610164008904d1000884d30015
:1044b0008b05e8000442e800f9ff3a0005003700e8
:1044c0000804440089844c008b05e9000442e9009b
:1044d000fbff3a00810007000af0a70001f0a000ee
:1044e0004f05be004f04be00000006006022b80069
:1044f000060220000000d0008180d2000482d20099
:104500008582d2000000a0000202520083825a007d
:10451000030031000202420083824a000000a10031
:104520000603e900f3ff3a0000000600efff070072
:104530000400be0000000600f4ff2f003400370026
:10454000889fbe008a9fbe008c1f78004b0007002a
:104550005200330003866c006450e10024003200f6
:104560006420e100270032006150e10022003200a7
:104570006120e100210032008b854200eb07b10091
:104580000134b800003ab8000804420089844a00a7
:10459000013ab8000030b8008880400009014a00a4
:1045a00004003300000040008180480002014900ff
:1045b0008b05e900c909dd008301700001003200ac
:1045c00013002000c814de004814dd004709de0097
:1045d0001200b200c808de00088470003f00070027
:1045e00001f0a1000cf0a70001f0a000340037009a
:1045f0006120e100360032000801be000200be006a
:10460000f7ff37006150e100fcff3a00300037004f
:10461000889fbe008a9fbe00841f78001700070095
:104620004f00780011003300f0ff2f00838f6c00e3
:1046300006003b00040565000a00a70008003700db
:1046400009f0a6001000200008003700820f540077
:10465000838f5c00030039001000200001003e0041
:104660000000200009f0a7000000ea004f05be008e
:104670004f04be000000e000000006000004be0081
:104680003c0007000003be000405be000200be009f
:1046900038000700844f7500000006000200be00cd
:1046a0006450e100050036006420e100020036009d
:1046b0000968a30001003a000800be000160a000e4
:1046c0004f0678004f05be004f04be0000000600f4
:1046d000f0ff2f00f1ff2700f9ff370081002000d5
:1046e000618055000b003d000b00200061fe2f0093
:1046f0000100e1001d00340082817100610164004d
:104700008904d1000884d3000000e800faff3a00d1
:10471000710020006100640003007000020060006e
:104720000900320061044400e0844c000988a500bf
:10473000050032008b05e8006808e10002003a003d
:104740008904d1000884d300f20f20000258e10050
:1047500005003d00c75ddd00f907b20089807500e6
:1047600008007800000006000bf827008b00780096
:1047700000000500c70ade00f107b200f50fb20025
:1047800008003200e1cf4200020032000170a000b8
:1047900024000500810f70000100320004080500ac
:1047a00044000500810f700002003a00140005006b
:1047b0008502e9000000400081c04800fcff3b008a
:0847c0000170a00024000500b7
:020000040000fa
:0200000401f009
:04000c00f8ff0000f9
:020000040000fa
:0200000401f009
:040010007eff00006f
:020000040000fa
:0200000401f009
:040014003fff0000aa
:020000040000fa
:0200000401f009
:04001c00dfff000002
:020000040000fa
:10000800f8450100f8450100f8450100f8450100f0
:10001800f8450100f8450100f8450100f8450100e0
:10002800f8450100f8450100f845010044270100a2
:10003800f8450100f8450100f84501006a2d000067
:10004800f8450100f8450100f8450100f8450100b0
:10005800f8450100f8450100f8450100f8450100a0
:10006800f8450100f8450100f8450100f845010090
:10007800f8450100f8450100f8450100f845010080
:10008800f8450100f8450100f8450100f845010070
:10009800f8450100f8450100f8450100f845010060
:1000a800f8450100f8450100f8450100c63d01008a
:1000b800f8450100f8450100f8450100f845010040
:1000c800f8450100f8450100f8450100f845010030
:1000d800f8450100f8450100f8450100f845010020
:1000e800f8450100f8450100f8450100f845010010
:1000f800f8450100f8450100f8450100f845010000
:10010800f8450100f8450100f8450100f8450100ef
:10011800f8450100f8450100f8450100f8450100df
:10012800f8450100f8450100f8450100f8450100cf
:10013800f8450100f8450100f8450100f8450100bf
:10014800f8450100f8450100f8450100f8450100af
:10015800f8450100f8450100f8450100f84501009f
:10016800f8450100f8450100f8450100f84501008f
:10017800f8450100f8450100f8450100f84501007f
:10018800f8450100f8450100f8450100f84501006f
:10019800f8450100f8450100f8450100f84501005f
:1001a800f8450100f8450100f8450100f84501004f
:1001b800f8450100f8450100f8450100f84501003f
:1001c800f8450100f8450100f8450100f84501002f
:1001d800f8450100f8450100f8450100f84501001f
:1001e800f8450100f8450100f8450100f84501000f
:0801f800f8450100f845010083
:020000040000fa
:10020800f8450100f8450100f8450100f8450100ee
:10021800f8450100f8450100f8450100f8450100de
:10022800f8450100f8450100f845010044270100a0
:10023800f8450100f8450100f84501006a2d000065
:10024800f8450100f8450100f8450100f8450100ae
:10025800f8450100f8450100f8450100f84501009e
:10026800f8450100f8450100f8450100f84501008e
:10027800f8450100f8450100f8450100f84501007e
:10028800f8450100f8450100f8450100f84501006e
:10029800f8450100f8450100f8450100f84501005e
:1002a800f8450100f8450100f8450100c63d010088
:1002b800f8450100f8450100f8450100f84501003e
:1002c800f8450100f8450100f8450100f84501002e
:1002d800f8450100f8450100f8450100f84501001e
:1002e800f8450100f8450100f8450100f84501000e
:1002f800f8450100f8450100f8450100f8450100fe
:10030800f8450100f8450100f8450100f8450100ed
:10031800f8450100f8450100f8450100f8450100dd
:10032800f8450100f8450100f8450100f8450100cd
:10033800f8450100f8450100f8450100f8450100bd
:10034800f8450100f8450100f8450100f8450100ad
:10035800f8450100f8450100f8450100f84501009d
:10036800f8450100f8450100f8450100f84501008d
:10037800f8450100f8450100f8450100f84501007d
:10038800f8450100f8450100f8450100f84501006d
:10039800f8450100f8450100f8450100f84501005d
:1003a800f8450100f8450100f8450100f84501004d
:1003b800f8450100f8450100f8450100f84501003d
:1003c800f8450100f8450100f8450100f84501002d
:1003d800f8450100f8450100f8450100f84501001d
:1003e800f8450100f8450100f8450100f84501000d
:0803f800f8450100f845010081
:020000040000fa
:020000040002f8
:102000000000000002010000264200000000000065
:102010000300000004160000274000000c10000020
:102020000800000002010000254a00000011000025
:1020300000000000081600002905000000ff000055
:1020400009000000041600002c00000000ff000042
:102050000e000000041600002f00000000ff00002a
:1020600013000000081600002b05000000ff000010
:102070001c000000041600002400000000ff000007
:1020800021000000041600002500000000ff0000f1
:1020900026000000041600002600000000ff0000db
:1020a0002b000000030100002103000000ff0000de
:1020b0002f000000020100002302000000ff0000ca
:1020c00032000000040100002415000000ff0000a1
:1020d00038000000040100002015000000ff00008f
:1020e0003d000000064100002015000000ff000038
:1020f000000000000000000000ff000000ff0000e2
:1021000000000000000000000000000000000000cf
:1021100000000000000000000000000000000000bf
:1021200000000000000000000000000000000000af
:10213000000000000000000000000000000000009f
:020000040000fa
:020000040002f8
:104000006801000000000000f00000000000000057
:1040100000000000000000000000000000000000a0
:104020000000000000000000000000000000000090
:104030000000000000000000000000000000000080
:104040000000000000000000000000000000000070
:104050000000000000000000000000000000000060
:104060000000000000000000000000000000000050
:104070000000000000000000000000000000000040
:104080000000000000000000000000000000000030
:104090000000000000000000000000000000000020
:1040a0000000000000000000000000000000000010
:1040b0000000000000000000000000000000000000
:1040c00000000000000000000000000000000000f0
:1040d00000000000000000000000000000000000e0
:1040e00000000000000000000000000000000000d0
:1040f00000000000000000000000000000000000c0
:10410000000000008c4200000000000000000000e1
:104110009600000000000000f6ff00000000000014
:10412000000000000000000000000000000000008f
:10413000000000000000000000000000000000007f
:10414000000000000000000000000000000000006f
:10415000000000000000000000000000000000005f
:10416000000000000000000000000000000000004f
:10417000000000000000000000000000000000003f
:10418000000000000000000000000000000000002f
:10419000000000000000000000000000000000001f
:1041a000000000000000000000000000000000000f
:1041b00000000000000000000000000000000000ff
:1041c00000000000000000000000000000000000ef
:1041d00000000000000000000000000000000000df
:1041e00000000000000000000000000000000000cf
:1041f00000000000000000000000000000000000bf
:10420000544c00004d2d00004d3300005f6d000048
:104210002d630000616e00005f4400004434000024
:104220005f500000494300005f300000302e000066
:10423000313300005f300000352e000030320000c6
:104240002e32000030310000352400000000000054
:10425000000000000000000000000000000000005e
:10426000000000000000000000000000000000004e
:10427000000000000000000000000000000000003e
:10428000000000000000000000000000000000002e
:020000040000fa
:041858000000060086
:020000040000fa
:041854004f04be007f
:020000040000fa
:041850004f05be0082
:020000040000fa
:04184c004f067800cb
:020000040000fa
:04184800f3fd3a0072
:020000040000fa
:04184400174ae2005d
:020000040000fa
:04184000dffc0700c2
:020000040000fa
:04183c000040eb007d
:020000040000fa
:0418380011ceb3001a
:020000040000fa
:041834001c6ab40076
:020000040000fa
:0418300000c2b3003f
:020000040000fa
:04182c0005003a0079
:020000040000fa
:04182800810f5000dc
:020000040000fa
:04182400010220009d
:020000040000fa
:04182000f007b2001b
:020000040000fa
:04181c001ccabf0023
:020000040000fa
:0418180045ff39004f
:020000040000fa
:04181400804f5600ab
:020000040000fa
:0418100016cabf0035
:020000040000fa
:04180c000c46e8009e
:020000040000fa
:0418080059ff3a004a
:020000040000fa
:04180400e08f5c0015
:020000040000fa
:04180000e00f5400a1
:020000040000fa
:0417fc00e0845c0029
:020000040000fa
:0417f8006404540031
:020000040000fa
:0417f40009002000c8
:020000040000fa
:0417f000480020008d
:020000040000fa
:0417ec001c4678001f
:020000040000fa
:0417e8006ca12000d0
:020000040000fa
:0417e400fbff3700d0
:020000040000fa
:0417e00005003200ce
:020000040000fa
:0417dc00808f5000aa
:020000040000fa
:0417d800c02221000a
:020000040000fa
:0417d4008098eb000e
:020000040000fa
:0417d000c1a2200092
:020000040000fa
:0417cc001140880040
:020000040000fa
:0417c8000040880055
:020000040000fa
:0417c40083804800d6
:020000040000fa
:0417c00002004000e3
:020000040000fa
:0417bc001340800056
:020000040000fa
:0417b800024080006b
:020000040000fa
:0417b4000100200010
:020000040000fa
:0417b00000402000d5
:020000040000fa
:0417ac004200f900fe
:020000040000fa
:0417a8004f00780076
:020000040000fa
:0417a400cf007800fa
:020000040000fa
:0417a0004f0178007d
:020000040000fa
:04179c000000000049
:020000040000fa
:04179800000000004d
:020000040000fa
:0417940061e7a80061
:020000040000fa
:04179000303b880062
:020000040000fa
:04178c00a00a20008f
:020000040000fa
:04178800303b88006a
:020000040000fa
:0417840050052000ec
:020000040000fa
:041780000109bb00a0
:020000040000fa
:04177c009100780060
:020000040000fa
:04177800003b8800aa
:020000040000fa
:04177400000024004d
:020000040000fa
:04177000c1a22000f2
:020000040000fa
:04176c0010017800f0
:020000040000fa
:0417680000802000dd
:020000040000fa
:041764009001880068
:020000040000fa
:0417600012007800fb
:020000040000fa
:04175c0022802000c7
:020000040000fa
:041758004220b70074
:020000040000fa
:04175400000e200063
:020000040000fa
:04175000821f78007c
:020000040000fa
:04174c00811f780081
:020000040000fa
:04174800801f780086
:020000040000fa
:041744004200f80067
:020000040000fa
:041740001b00360054
:020000040000fa
:04173c00818f590040
:020000040000fa
:04173800800f5100cd
:020000040000fa
:041734000108200088
:020000040000fa
:041730000000200095
:020000040000fa
:04172c0013408000e6
:020000040000fa
:0417280002408000fb
:020000040000fa
:041724004200f90086
:020000040000fa
:041720004f007800fe
:020000040000fa
:04171c00cf00780082
:020000040000fa
:041718004f01780005
:020000040000fa
:04171400cf01780089
:020000040000fa
:04171000eeff3a00ae
:020000040000fa
:04170c008301e9006c
:020000040000fa
:041708004f00780016
:020000040000fa
:0417040000000000e1
:020000040000fa
:0417000000000000e5
:020000040000fa
:0416fc0061e7a800fa
:020000040000fa
:0416f800303b8800fb
:020000040000fa
:0416f400a00a200028
:020000040000fa
:0416f000303b880003
:020000040000fa
:0416ec005005200085
:020000040000fa
:0416e800003b88003b
:020000040000fa
:0416e40010002400ce
:020000040000fa
:0416e000801f7800ef
:020000040000fa
:0416dc00fcff3a00d5
:020000040000fa
:0416d8000201e90022
:020000040000fa
:0416d4003198bb008e
:020000040000fa
:0416d0003108bb0022
:020000040000fa
:0416cc0002042000f4
:020000040000fa
:0416c800830020007b
:020000040000fa
:0416c400c1a220009f
:020000040000fa
:0416c000120078009c
:020000040000fa
:0416bc000280200088
:020000040000fa
:0416b800000000002e
:020000040000fa
:0416b4000000000032
:020000040000fa
:0416b00061e7a80046
:020000040000fa
:0416ac00303b880047
:020000040000fa
:0416a800a00a200074
:020000040000fa
:0416a400303b88004f
:020000040000fa
:0416a00050052000d1
:020000040000fa
:04169c00003b880087
:020000040000fa
:041698002004240006
:020000040000fa
:041694000008bb008f
:020000040000fa
:0416900012007800cc
:020000040000fa
:04168c0002802000b8
:020000040000fa
:041688009001880045
:020000040000fa
:0416840012007800d8
:020000040000fa
:0416800022802000a4
:020000040000fa
:04167c004220b70051
:020000040000fa
:04167800000e200040
:020000040000fa
:04167400831f780058
:020000040000fa
:04167000821f78005d
:020000040000fa
:04166c00811f780062
:020000040000fa
:04166800801f780067
:020000040000fa
:041664004200f80048
:020000040000fa
:0416600031003e0017
:020000040000fa
:04165c00818f590021
:020000040000fa
:04165800800f5100ae
:020000040000fa
:04165400f10720007a
:020000040000fa
:04165000f0ff2f0078
:020000040000fa
:04164c0013408000c7
:020000040000fa
:0416480002408000dc
:020000040000fa
:041644003800360034
:020000040000fa
:04164000e08f5800df
:020000040000fa
:04163c00830f5000c8
:020000040000fa
:04163800f3ff21009b
:020000040000fa
:0416340011408000e1
:020000040000fa
:0416300000408000f6
:020000040000fa
:04162c00060036007e
:020000040000fa
:04162800e08f5800f7
:020000040000fa
:04162400820f5000e1
:020000040000fa
:04162000f23f200075
:020000040000fa
:04161c0011408000f9
:020000040000fa
:04161800004080000e
:020000040000fa
:0416140023408800e7
:020000040000fa
:0416100079003a0023
:020000040000fa
:04160c00e08f5c000f
:020000040000fa
:04160800e40f540097
:020000040000fa
:0416040003003200ad
:020000040000fa
:04160000808f500087
:020000040000fa
:0415fc00004020008b
:020000040000fa
:0415f800214080000e
:020000040000fa
:0415f400204088000b
:020000040000fa
:0415f0000000e8000f
:020000040000fa
:0415ec008b307900c7
:020000040000fa
:0415e800800040003f
:020000040000fa
:0415e4002040800023
:020000040000fa
:0415e000204088001f
:020000040000fa
:0415dc000000e80023
:020000040000fa
:0415d8008a307900dc
:020000040000fa
:0415d4008000400053
:020000040000fa
:0415d000c2a2200093
:020000040000fa
:0415cc00204080003b
:020000040000fa
:0415c80080857500a5
:020000040000fa
:0415c400fb0fb20067
:020000040000fa
:0415c0004800dd0002
:020000040000fa
:0415bc0022cabf0080
:020000040000fa
:0415b80080857500b5
:020000040000fa
:0415b40081856500c8
:020000040000fa
:0415b0000080fb00bc
:020000040000fa
:0415ac0021cabf0091
:020000040000fa
:0415a80000057500c5
:020000040000fa
:0415a400fa0fb20088
:020000040000fa
:0415a0004800dd0022
:020000040000fa
:04159c0020cabf00a2
:020000040000fa
:0415980000057500d5
:020000040000fa
:0415940001056500e8
:020000040000fa
:0415900001f02f0037
:020000040000fa
:04158c000080fb00e0
:020000040000fa
:041588001fcabf00b7
:020000040000fa
:0415840098003a0091
:020000040000fa
:041580000000e00087
:020000040000fa
:04157c008001780072
:020000040000fa
:0415780091fd0700da
:020000040000fa
:0415740040c0b300c0
:020000040000fa
:041570008040eb00cc
:020000040000fa
:04156c00a4003700a0
:020000040000fa
:04156800d204900019
:020000040000fa
:0415640042049000ad
:020000040000fa
:041560000301410042
:020000040000fa
:04155c000428ef0070
:020000040000fa
:0415580011408800b6
:020000040000fa
:0415540000408800cb
:020000040000fa
:041550000080d30044
:020000040000fa
:04154c008100d10049
:020000040000fa
:0415480020009000ef
:020000040000fa
:04154400b000900063
:020000040000fa
:041540000300410063
:020000040000fa
:04153c0063802000a8
:020000040000fa
:041538000440bc00af
:020000040000fa
:04153400c2c0b3007e
:020000040000fa
:041530000c407800f3
:020000040000fa
:04152c00c5003700bf
:020000040000fa
:04152800176aef004f
:020000040000fa
:04152400c7003a00c2
:020000040000fa
:04152000810f5000e7
:020000040000fa
:04151c0001062000a4
:020000040000fa
:04151800f007b20026
:020000040000fa
:041514001ccabf002e
:020000040000fa
:0415100053ff39004c
:020000040000fa
:04150c00804f5600b6
:020000040000fa
:0415080016cabf0040
:020000040000fa
:041504000c46e800a9
:020000040000fa
:0415000067ff3a0047
:020000040000fa
:0414fc00e08f5c0021
:020000040000fa
:0414f800e00f5400ad
:020000040000fa
:0414f400e0845c0034
:020000040000fa
:0414f000640454003c
:020000040000fa
:0414ec0009002000d3
:020000040000fa
:0414e8004800200098
:020000040000fa
:0414e4001c4678002a
:020000040000fa
:0414e0006ca12000db
:020000040000fa
:0414dc0004003700d1
:020000040000fa
:0414d8001140880037
:020000040000fa
:0414d400004088004c
:020000040000fa
:0414d00083804800cd
:020000040000fa
:0414cc0002004000da
:020000040000fa
:0414c800134080004d
:020000040000fa
:0414c4000240800062
:020000040000fa
:0414c0000100200007
:020000040000fa
:0414bc0000402000cc
:020000040000fa
:0414b8000428ef0015
:020000040000fa
:0414b4000e003a00ec
:020000040000fa
:0414b000808f5000d9
:020000040000fa
:0414ac0000402000dc
:020000040000fa
:0414a800214080005f
:020000040000fa
:0414a400c6fd07007a
:020000040000fa
:0414a0000040eb001d
:020000040000fa
:04149c0011cfb300b9
:020000040000fa
:041498000200370017
:020000040000fa
:041494000540780097
:020000040000fa
:0414900011cfb300c5
:020000040000fa
:04148c000600320024
:020000040000fa
:04148800214ae30012
:020000040000fa
:0414840004407800a8
:020000040000fa
:0414800009003e0021
:020000040000fa
:04147c00818f590003
:020000040000fa
:04147800800f510090
:020000040000fa
:04147400f10720005c
:020000040000fa
:04147000f0ff2f005a
:020000040000fa
:04146c0013408000a9
:020000040000fa
:0414680002408000be
:020000040000fa
:041464000d003a003d
:020000040000fa
:04146000204ae3003b
:020000040000fa
:04145c004818de004e
:020000040000fa
:0414580010003a0046
:020000040000fa
:041454001f4ae30048
:020000040000fa
:0414500003407800dd
:020000040000fa
:04144c0020408800b4
:020000040000fa
:041448000000e800b8
:020000040000fa
:0414440061027900c8
:020000040000fa
:0414400080004000e8
:020000040000fa
:04143c0020408000cc
:020000040000fa
:0414380020408800c8
:020000040000fa
:041434000000e800cc
:020000040000fa
:04143000e10179005d
:020000040000fa
:04142c00c2a2200038
:020000040000fa
:041428008000400000
:020000040000fa
:0414240020408000e4
:020000040000fa
:041420002f003a005f
:020000040000fa
:04141c000000e000ec
:020000040000fa
:0414180080027800d6
:020000040000fa
:04141400eafd0700e6
:020000040000fa
:0414100040c0b30025
:020000040000fa
:04140c008040eb0031
:020000040000fa
:041408002c2ab700d3
:020000040000fa
:04140400c0f12f0004
:020000040000fa
:0414000001003700b0
:020000040000fa
:0413fc0080f02f004e
:020000040000fa
:0413f80003003700b7
:020000040000fa
:0413f40000f22f00d4
:020000040000fa
:0413f00005003700bd
:020000040000fa
:0413ec0080f12f005d
:020000040000fa
:0413e80007003700c3
:020000040000fa
:0413e40080f72f005f
:020000040000fa
:0413e00009003700c9
:020000040000fa
:0413dc0080ff2f005f
:020000040000fa
:0413d8000b003700cf
:020000040000fa
:0413d40000f32f00f3
:020000040000fa
:0413d0000c003700d6
:020000040000fa
:0413cc000f003a00d4
:020000040000fa
:0413c800818f5900b8
:020000040000fa
:0413c400800f510045
:020000040000fa
:0413c000810f200079
:020000040000fa
:0413bc00e00020002d
:020000040000fa
:0413b80010003200ef
:020000040000fa
:0413b400818f5900cc
:020000040000fa
:0413b000800f510059
:020000040000fa
:0413ac00810f20008d
:020000040000fa
:0413a800c000200061
:020000040000fa
:0413a40011003700fd
:020000040000fa
:0413a0001a003a00f5
:020000040000fa
:04139c00818f5900e4
:020000040000fa
:04139800800f510071
:020000040000fa
:04139400810f2000a5
:020000040000fa
:0413900080002000b9
:020000040000fa
:04138c0006003e0019
:020000040000fa
:041388001a00320015
:020000040000fa
:04138400818f5900fc
:020000040000fa
:04138000800f510089
:020000040000fa
:04137c00810f2000bd
:020000040000fa
:04137800a0002000b1
:020000040000fa
:041374001700370027
:020000040000fa
:0413700026003a0019
:020000040000fa
:04136c00818f590014
:020000040000fa
:04136800800f5100a1
:020000040000fa
:04136400810f2000d5
:020000040000fa
:041360000000200069
:020000040000fa
:04135c001f0032003c
:020000040000fa
:04135800818f590028
:020000040000fa
:04135400800f5100b5
:020000040000fa
:04135000810f2000e9
:020000040000fa
:04134c00400020003d
:020000040000fa
:04134800220032004d
:020000040000fa
:04134400818f59003c
:020000040000fa
:04134000800f5100c9
:020000040000fa
:04133c00810f2000fd
:020000040000fa
:041338002000200071
:020000040000fa
:0413340010003e0067
:020000040000fa
:041330002c0032005b
:020000040000fa
:04132c00818f590054
:020000040000fa
:04132800800f5100e1
:020000040000fa
:04132400810f200015
:020000040000fa
:041320006000200049
:020000040000fa
:04131c0013408000fa
:020000040000fa
:04131800024080000f
:020000040000fa
:041314003d00360062
:020000040000fa
:04131000818f590070
:020000040000fa
:04130c00800f5100fd
:020000040000fa
:0413080001082000b8
:020000040000fa
:0413040000002000c5
:020000040000fa
:041300001340800016
:020000040000fa
:0412fc00024080002c
:020000040000fa
:0412f8004200f900b7
:020000040000fa
:0412f400cf007800af
:020000040000fa
:0412f0004f01780032
:020000040000fa
:0412ec004f00780037
:020000040000fa
:0412e800fcff3a00cd
:020000040000fa
:0412e4000000e9001d
:020000040000fa
:0412e0003199ba0086
:020000040000fa
:0412dc001119ba002a
:020000040000fa
:0412d800c2a220008e
:020000040000fa
:0412d40000202000d6
:020000040000fa
:0412d0009001880001
:020000040000fa
:0412cc001200780094
:020000040000fa
:0412c8002280200060
:020000040000fa
:0412c400900078001e
:020000040000fa
:0412c000008020008a
:020000040000fa
:0412bc004220b70015
:020000040000fa
:0412b800000e200004
:020000040000fa
:0412b400801f78001f
:020000040000fa
:0412b000821f780021
:020000040000fa
:0412ac00811f780026
:020000040000fa
:0412a8004200f80008
:020000040000fa
:0412a40059003a00b3
:020000040000fa
:0412a0000408e2005c
:020000040000fa
:04129c009600370081
:020000040000fa
:04129800d2049000ec
:020000040000fa
:041294004204900080
:020000040000fa
:041290000301410015
:020000040000fa
:04128c000428ef0043
:020000040000fa
:041288001140880089
:020000040000fa
:04128400004088009e
:020000040000fa
:041280000080d30017
:020000040000fa
:04127c008100d1001c
:020000040000fa
:0412780020009000c2
:020000040000fa
:04127400b000900036
:020000040000fa
:041270000300410036
:020000040000fa
:04126c00638020007b
:020000040000fa
:041268000440bc0082
:020000040000fa
:04126400c2c0b30051
:020000040000fa
:041260000c407800c6
:020000040000fa
:04125c006c013700ea
:020000040000fa
:0412580000467800d4
:020000040000fa
:04125400ac003a00b0
:020000040000fa
:041250000046eb0069
:020000040000fa
:04124c000004b200e8
:020000040000fa
:041248001ccabf00fd
:020000040000fa
:041244007f013700ef
:020000040000fa
:041240001c6ab40070
:020000040000fa
:04123c0000c1b3003a
:020000040000fa
:0412380082013200fd
:020000040000fa
:04123400174ae20073
:020000040000fa
:0412300084013700fe
:020000040000fa
:04122c0083013a0000
:020000040000fa
:04122800174ae2007f
:020000040000fa
:0412240011c2b30040
:020000040000fa
:041220000400320094
:020000040000fa
:04121c001a4ae20088
:020000040000fa
:041218001a6ab4009a
:020000040000fa
:0412140020cabf002d
:020000040000fa
:041210001a6ab400a2
:020000040000fa
:04120c001fcabf0036
:020000040000fa
:0412080004003a00a4
:020000040000fa
:041204000000e00006
:020000040000fa
:041200006ffe070076
:020000040000fa
:0411fc0020c0b3005c
:020000040000fa
:0411f8008040eb0048
:020000040000fa
:0411f400cdff3900f2
:020000040000fa
:0411f000804f5400d8
:020000040000fa
:0411ec0016cabf0060
:020000040000fa
:0411e8000844e800cf
:020000040000fa
:0411e4001844780033
:020000040000fa
:0411e00068a12000e2
:020000040000fa
:0411dc0002003700d6
:020000040000fa
:0411d8000844e900de
:020000040000fa
:0411d4007afe070098
:020000040000fa
:0411d0000040eb00f0
:020000040000fa
:0411cc0061c1b3004a
:020000040000fa
:0411c80007003200ea
:020000040000fa
:0411c4006300600064
:020000040000fa
:0411c0006200780051
:020000040000fa
:0411bc00e2802000ad
:020000040000fa
:0411b8006c20b900ee
:020000040000fa
:0411b40006003700fa
:020000040000fa
:0411b00051c1b30076
:020000040000fa
:0411ac0002003e00ff
:020000040000fa
:0411a800818f5900da
:020000040000fa
:0411a400800f510067
:020000040000fa
:0411a000f107200033
:020000040000fa
:04119c00f0ff2f0031
:020000040000fa
:04119800070032001a
:020000040000fa
:0411940002006000f5
:020000040000fa
:04119000f07f2000cc
:020000040000fa
:04118c001201be008e
:020000040000fa
:041188000001410021
:020000040000fa
:04118400a080200027
:020000040000fa
:041180000440bc006b
:020000040000fa
:04117c00c2c0b3003a
:020000040000fa
:0411780008407800b3
:020000040000fa
:041174000882fb00f2
:020000040000fa
:04117000f9ff3a0049
:020000040000fa
:04116c00808f500020
:020000040000fa
:04116800b0a2200011
:020000040000fa
:041164001aeab700cc
:020000040000fa
:0411600031404000da
:020000040000fa
:04115c001acabf00ec
:020000040000fa
:0411580011597800b1
:020000040000fa
:04115400f1a12000e5
:020000040000fa
:041150000001410059
:020000040000fa
:04114c00608020009f
:020000040000fa
:041148000440bc00a3
:020000040000fa
:04114400c2c0b30072
:020000040000fa
:0411400008407800eb
:020000040000fa
:04113c0028003a004d
:020000040000fa
:041138000000e000d3
:020000040000fa
:04113400a2fe070010
:020000040000fa
:04113000c0c0b30088
:020000040000fa
:04112c008040eb0014
:020000040000fa
:04112800300037005c
:020000040000fa
:041124000244780009
:020000040000fa
:041120001a6ab40093
:020000040000fa
:04111c000340780014
:020000040000fa
:04111800c8013700d3
:020000040000fa
:0411140041c1b30022
:020000040000fa
:0411100002003600a3
:020000040000fa
:04110c0080cf500040
:020000040000fa
:04110800c0c2b300ae
:020000040000fa
:04110400914078009e
:020000040000fa
:0411000061a12000c9
:020000040000fa
:0410fc0005003200b9
:020000040000fa
:0410f800164ae200b2
:020000040000fa
:0410f40007003a00b7
:020000040000fa
:0410f000204ae200b0
:020000040000fa
:0410ec0016eab70049
:020000040000fa
:0410e8000300780089
:020000040000fa
:0410e40093417800bc
:020000040000fa
:0410e000f3a1200058
:020000040000fa
:0410dc001aeab70055
:020000040000fa
:0410d800da013a00ff
:020000040000fa
:0410d4000000e00038
:020000040000fa
:0410d00000017800a3
:020000040000fa
:0410cc00bcfe07005f
:020000040000fa
:0410c80020c0b30091
:020000040000fa
:0410c4008040eb007d
:020000040000fa
:0410c000de01370016
:020000040000fa
:0410bc0031c1b3008b
:020000040000fa
:0410b8001c8aa900e5
:020000040000fa
:0410b400e301320022
:020000040000fa
:0410b0001a4ae200f6
:020000040000fa
:0410ac00c4fe070077
:020000040000fa
:0410a8000040eb0019
:020000040000fa
:0410a40021c1b300b3
:020000040000fa
:0410a0001c8aa900fd
:020000040000fa
:04109c00040032001a
:020000040000fa
:04109800264ae30001
:020000040000fa
:04109400e0c6b300ff
:020000040000fa
:04109000cbfe07008c
:020000040000fa
:04108c000040eb0035
:020000040000fa
:0410880011c1b300df
:020000040000fa
:041084001c8aa90019
:020000040000fa
:041080000400320036
:020000040000fa
:04107c0090cf100001
:020000040000fa
:0410780011c0b300f0
:020000040000fa
:0410740050a2200066
:020000040000fa
:041070001c8aa8002e
:020000040000fa
:04106c00faff3a004d
:020000040000fa
:04106800808f500025
:020000040000fa
:0410640090a2200036
:020000040000fa
:041060001aeab700d1
:020000040000fa
:04105c0031404000df
:020000040000fa
:041058001acabf00f1
:020000040000fa
:04105400f1a12000e6
:020000040000fa
:041050001aeab700e1
:020000040000fa
:04104c00fd013a0068
:020000040000fa
:041048000000e000c4
:020000040000fa
:04104400defe0700c5
:020000040000fa
:04104000a0c0b30099
:020000040000fa
:04103c0001023a0073
:020000040000fa
:041038000100e000d3
:020000040000fa
:041034008400320002
:020000040000fa
:04103000808f50005d
:020000040000fa
:04102c00000220009e
:020000040000fa
:04102800260032006c
:020000040000fa
:04102400f08f5000f9
:020000040000fa
:041020000103b20016
:020000040000fa
:04101c0080007800d8
:020000040000fa
:041018001ccabf002f
:020000040000fa
:041014000b02370094
:020000040000fa
:0410100017eab70024
:020000040000fa
:04100c0010c0b3005d
:020000040000fa
:041008008c1f7800c1
:020000040000fa
:041004008a9fbe0001
:020000040000fa
:04100000889fbe0007
:020000040000fa
:040f90000000060057
:020000040000fa
:040f8c000000eb0076
:020000040000fa
:040f8800a00a0500b6
:020000040000fa
:040f84001b6aec00f8
:020000040000fa
:040f80001c6aef00f8
:020000040000fa
:040f7c00200005004c
:020000040000fa
:040f7800176aef0005
:020000040000fa
:040f74000000050074
:020000040000fa
:040f700011e1a900e2
:020000040000fa
:040f6c0013e1a900e4
:020000040000fa
:040f680055ff3700fa
:020000040000fa
:040f640000427800cf
:020000040000fa
:040f60008342780050
:020000040000fa
:040f5c00030032005c
:020000040000fa
:040f58000304e000ae
:020000040000fa
:040f54001000050084
:020000040000fa
:040f5000176aef002d
:020000040000fa
:040f4c005cff3a000c
:020000040000fa
:040f4800ea4f50001c
:020000040000fa
:040f440018cabf0008
:020000040000fa
:040f400019eab700f3
:020000040000fa
:040f3c0010c0b3002e
:020000040000fa
:040f380018eab700fc
:020000040000fa
:040f34000100780040
:020000040000fa
:040f30000400370082
:020000040000fa
:040f2c00186aec0053
:020000040000fa
:040f280002003a0089
:020000040000fa
:040f2400e14f500049
:020000040000fa
:040f200019cabf002b
:020000040000fa
:040f1c00fdff3a009b
:020000040000fa
:040f1800e84060004d
:020000040000fa
:040f140032c4bf0024
:020000040000fa
:040f10003264a8009f
:020000040000fa
:040f0c0000699800e0
:020000040000fa
:040f08001bcabf0041
:020000040000fa
:040f04007061980080
:020000040000fa
:040f000010c0b3006a
:020000040000fa
:040efc0010003700ab
:020000040000fa
:040ef80020c0b30063
:020000040000fa
:040ef40018eab70041
:020000040000fa
:040ef0000100780085
:020000040000fa
:040eec000f003200c1
:020000040000fa
:040ee800e24f500085
:020000040000fa
:040ee40019cabf0068
:020000040000fa
:040ee000fdff3a00d8
:020000040000fa
:040edc00e84060008a
:020000040000fa
:040ed80032c4bf0061
:020000040000fa
:040ed4003264a800dc
:020000040000fa
:040ed000006998001d
:020000040000fa
:040ecc0000c0eb0077
:020000040000fa
:040ec80070619800bd
:020000040000fa
:040ec40020c0b30097
:020000040000fa
:040ec00008003700ef
:020000040000fa
:040ebc00fdff3a00fc
:020000040000fa
:040eb800e8406000ae
:020000040000fa
:040eb40032c4bf0085
:020000040000fa
:040eb0003264a80000
:020000040000fa
:040eac000168980041
:020000040000fa
:040ea80080c0eb001b
:020000040000fa
:040ea40071609800e1
:020000040000fa
:040ea00021c0b300ba
:020000040000fa
:040e9c00007c2400b2
:020000040000fa
:040e980089ff370097
:020000040000fa
:040e94001b6aec00e9
:020000040000fa
:040e90001ceaa800b0
:020000040000fa
:040e8c0003003a0025
:020000040000fa
:040e880080cf5000c7
:020000040000fa
:040e840040c5b300b2
:020000040000fa
:040e8000a2489000f4
:020000040000fa
:040e7c0007003a0031
:020000040000fa
:040e7800814f500056
:020000040000fa
:040e74001248900090
:020000040000fa
:040e70000a003a003a
:020000040000fa
:040e6c0080cf5000e3
:020000040000fa
:040e68006d40400099
:020000040000fa
:040e64008248900030
:020000040000fa
:040e60000e003a0046
:020000040000fa
:040e5c0080cf5000f3
:020000040000fa
:040e580020c4b300ff
:020000040000fa
:040e5400f2409000d8
:020000040000fa
:040e50001c003a0048
:020000040000fa
:040e4c00e54f50001e
:020000040000fa
:040e48006f40600097
:020000040000fa
:040e44004240900098
:020000040000fa
:040e40003f00370038
:020000040000fa
:040e3c0030c0b3000f
:020000040000fa
:040e380018eab700fd
:020000040000fa
:040e34000100780041
:020000040000fa
:040e30003e0032004e
:020000040000fa
:040e2c00e34f500040
:020000040000fa
:040e280019cabf0024
:020000040000fa
:040e2400fdff3a0094
:020000040000fa
:040e2000e840600046
:020000040000fa
:040e1c0032c4bf001d
:020000040000fa
:040e18003264a80098
:020000040000fa
:040e140000699800d9
:020000040000fa
:040e100000c0eb0033
:020000040000fa
:040e0c007061980079
:020000040000fa
:040e080030c0b30043
:020000040000fa
:040e04004e00370065
:020000040000fa
:040e000040c0b3003b
:020000040000fa
:040dfc0018eab7003a
:020000040000fa
:040df800010078007e
:020000040000fa
:040df4004d0032007c
:020000040000fa
:040df000e44f50007c
:020000040000fa
:040dec0019cabf0061
:020000040000fa
:040de800fdff3a00d1
:020000040000fa
:040de400e840600083
:020000040000fa
:040de00032c4bf005a
:020000040000fa
:040ddc003264a800d5
:020000040000fa
:040dd8000069980016
:020000040000fa
:040dd40000c0eb0070
:020000040000fa
:040dd00070619800b6
:020000040000fa
:040dcc0040c0b30070
:020000040000fa
:040dc8006d00320088
:020000040000fa
:040dc40080cf50008c
:020000040000fa
:040dc000a0cab30012
:020000040000fa
:040dbc00f240900071
:020000040000fa
:040db80013003a00ea
:020000040000fa
:040db400e74f5000b5
:020000040000fa
:040db0006f40600030
:020000040000fa
:040dac004240900031
:020000040000fa
:040da800c4ff37004d
:020000040000fa
:040da400f1ff3a0021
:020000040000fa
:040da0001e4ae20005
:020000040000fa
:040d9c0003c052003e
:020000040000fa
:040d980074003200b1
:020000040000fa
:040d940085cf5100b6
:020000040000fa
:040d90008341e800b3
:020000040000fa
:040d8c001e6aed00ee
:020000040000fa
:040d88000442e80039
:020000040000fa
:040d84001171780071
:020000040000fa
:040d8000f0a12000be
:020000040000fa
:040d7c000481fb00f3
:020000040000fa
:040d78008080500027
:020000040000fa
:040d7400e17c2400fa
:020000040000fa
:040d70000080fb0004
:020000040000fa
:040d6c001ecabf00dc
:020000040000fa
:040d68000c00370044
:020000040000fa
:040d64008041eb00df
:020000040000fa
:040d60001b6aec001e
:020000040000fa
:040d5c001eeab700d4
:020000040000fa
:040d580070c0b300b4
:020000040000fa
:040d540015003a004c
:020000040000fa
:040d5000e84f500018
:020000040000fa
:040d4c006f40600094
:020000040000fa
:040d48004240900095
:020000040000fa
:040d44003f003d002f
:020000040000fa
:040d40001c4ae20067
:020000040000fa
:040d3c0070003a0009
:020000040000fa
:040d380080cf500018
:020000040000fa
:040d34006240900089
:020000040000fa
:040d3000027c24001d
:020000040000fa
:040d2c00914078007a
:020000040000fa
:040d2800b1a1200055
:020000040000fa
:040d24002004a900fe
:020000040000fa
:040d2000efff3200af
:020000040000fa
:040d1c000008a30028
:020000040000fa
:040d180020c4bf0034
:020000040000fa
:040d14009800320011
:020000040000fa
:040d1000808f500080
:020000040000fa
:040d0c00e0082000db
:020000040000fa
:040d0800410880001e
:020000040000fa
:040d0400fdff3a00b5
:020000040000fa
:040d00000038a30014
:020000040000fa
:040cfc0031c4bf0040
:020000040000fa
:040cf8003164a800bb
:020000040000fa
:040cf40004003a00be
:020000040000fa
:040cf000808f5000a1
:020000040000fa
:040cec007004200070
:020000040000fa
:040ce800410880003f
:020000040000fa
:040ce4000c003a00c6
:020000040000fa
:040ce0000601e20027
:020000040000fa
:040cdc000e003700cf
:020000040000fa
:040cd80011e1a8007e
:020000040000fa
:040cd4000621ef0006
:020000040000fa
:040cd0000821ef0008
:020000040000fa
:040ccc00fdff3a00ee
:020000040000fa
:040cc8000038a3004d
:020000040000fa
:040cc40031c4bf0078
:020000040000fa
:040cc0003164a800f3
:020000040000fa
:040cbc0080427800fa
:020000040000fa
:040cb8000100370000
:020000040000fa
:040cb400f2ff3a0011
:020000040000fa
:040cb0001e4ae200f6
:020000040000fa
:040cac00af00320063
:020000040000fa
:040ca800834f520024
:020000040000fa
:040ca40084c25100b5
:020000040000fa
:040ca0001e6aed00db
:020000040000fa
:040c9c000442e80026
:020000040000fa
:040c9800117178005e
:020000040000fa
:040c9400f0a12000ab
:020000040000fa
:040c90000481fb00e0
:020000040000fa
:040c8c008080500014
:020000040000fa
:040c8800e17c2400e7
:020000040000fa
:040c84000080fb00f1
:020000040000fa
:040c80001ecabf00c9
:020000040000fa
:040c7c000900370034
:020000040000fa
:040c7800b70032008f
:020000040000fa
:040c74001ecabf00d5
:020000040000fa
:040c70001deab700c2
:020000040000fa
:040c6c000300780009
:020000040000fa
:040c6800b900370098
:020000040000fa
:040c6400c9003a0089
:020000040000fa
:040c6000ea4f500007
:020000040000fa
:040c5c0018cabf00f3
:020000040000fa
:040c580019eab700de
:020000040000fa
:040c54000400780020
:020000040000fa
:040c500018eab700e7
:020000040000fa
:040c4c00010078002b
:020000040000fa
:040c4800040037006d
:020000040000fa
:040c4400186aec003e
:020000040000fa
:040c400002003a0074
:020000040000fa
:040c3c00844f500091
:020000040000fa
:040c380019cabf0016
:020000040000fa
:040c3400d5003200b5
:020000040000fa
:040c3000800f5100e0
:020000040000fa
:040c2c007000500004
:020000040000fa
:040c28008000fd004b
:020000040000fa
:040c24001eeab7000d
:020000040000fa
:040c20008000fd0053
:020000040000fa
:040c1c00db003200c7
:020000040000fa
:040c1800800f5100f8
:020000040000fa
:040c1400000f2000ad
:020000040000fa
:040c1000020fb2001d
:020000040000fa
:040c0c000401780067
:020000040000fa
:040c0800fdff3a00b2
:020000040000fa
:040c0400e840600064
:020000040000fa
:040c000032c4bf003b
:020000040000fa
:040bfc003264a800b7
:020000040000fa
:040bf80001689800f8
:020000040000fa
:040bf40082c040007b
:020000040000fa
:040bf0001241780036
:020000040000fa
:040bec00e2a1200062
:020000040000fa
:040be80091407800c0
:020000040000fa
:040be400d1a120007b
:020000040000fa
:040be00071609800a8
:020000040000fa
:040bdc00007c240075
:020000040000fa
:040bd80024003200c3
:020000040000fa
:040bd4000104e00038
:020000040000fa
:040bd000ef00320000
:020000040000fa
:040bcc00174ae200e2
:020000040000fa
:040bc80030002000d9
:020000040000fa
:040bc4000142780072
:020000040000fa
:040bc00080417800f8
:020000040000fa
:040ba4000000060047
:020000040000fa
:040ba000730888004e
:020000040000fa
:040b9c007308880052
:020000040000fa
:040b98000621ef0043
:020000040000fa
:040b94000a21ef0043
:020000040000fa
:040b90001061b70039
:020000040000fa
:040b8c0000c3b300ef
:020000040000fa
:040b880010c1a900ef
:020000040000fa
:040b84001021a90093
:020000040000fa
:040b80001061a80058
:020000040000fa
:040b7c0011e1a900da
:020000040000fa
:040b780013e1a900dc
:020000040000fa
:040b74002004a900b0
:020000040000fa
:040b7000186aef0010
:020000040000fa
:040b6c00196aef0013
:020000040000fa
:040b68000428ef006e
:020000040000fa
:040b64001b6aef0019
:020000040000fa
:040b60001c6aef001c
:020000040000fa
:040b5c001e6aef001e
:020000040000fa
:040b580032e4a800db
:020000040000fa
:040b540031e4a800e0
:020000040000fa
:040b5000c0609800e9
:020000040000fa
:040b4c000030a100d4
:020000040000fa
:040b48000020a100e8
:020000040000fa
:040b44000010a000fd
:020000040000fa
:040b40000000a00011
:020000040000fa
:040b3c004160900084
:020000040000fa
:040b38008368980036
:020000040000fa
:040b3400f3609800d2
:020000040000fa
:040b3000e0609800e9
:020000040000fa
:040b2c0000ceb30044
:020000040000fa
:040b2800003f8a0000
:020000040000fa
:040b2400c000b3005a
:020000040000fa
:040b2000020060006f
:020000040000fa
:040b1c00003f820014
:020000040000fa
:040b1800c050980031
:020000040000fa
:040b14000030a1000c
:020000040000fa
:040b10000020a10020
:020000040000fa
:040b0c000010a10034
:020000040000fa
:040b08000000a10048
:020000040000fa
:040b040041509000cc
:020000040000fa
:040b0000d050980039
:020000040000fa
:040afc000010a00046
:020000040000fa
:040af80051509000c9
:020000040000fa
:040af4008050980096
:020000040000fa
:040af0000010a00052
:020000040000fa
:040aec000150900025
:020000040000fa
:040ae800803e8a00c2
:020000040000fa
:040ae400c000b3009b
:020000040000fa
:040ae00002006000b0
:020000040000fa
:040adc0032002e00b6
:020000040000fa
:040ad800803e8200da
:020000040000fa
:040ad400017c24007d
:020000040000fa
:040ad000fbff3a00ee
:020000040000fa
:040acc00808f5000c7
:020000040000fa
:040ac800c022210027
:020000040000fa
:040ac400831878001b
:020000040000fa
:040ac0008081eb0046
:020000040000fa
:040abc00c1a22000b3
:020000040000fa
:040ab800fdff3a0004
:020000040000fa
:040ab4000000e90055
:020000040000fa
:040ab0008058eb007f
:020000040000fa
:040aac000004200022
:020000040000fa
:040aa800017c2400a9
:020000040000fa
:040aa4001404a8008e
:020000040000fa
:040aa0000004a900a5
:020000040000fa
:040a9c002064b6001c
:020000040000fa
:040a980000cfb300d8
:020000040000fa
:040a94001864b6002c
:020000040000fa
:040a9000c0cfb30020
:020000040000fa
:040a8c0011228800ab
:020000040000fa
:040a880000228800c0
:020000040000fa
:040a84000006b300b5
:020000040000fa
:040a80007f00600093
:020000040000fa
:040a7c000030a100a5
:020000040000fa
:040a78009121880040
:020000040000fa
:040a74008021880055
:020000040000fa
:040a70000004a800d6
:020000040000fa
:040a6c000200700014
:020000040000fa
:040a680002fe2f005b
:020000040000fa
:040a64000030a000be
:020000040000fa
:040a6000821c88006c
:020000040000fa
:040a5c00221c8800d0
:020000040000fa
:040a5800027c2000fc
:020000040000fa
:040a540033e4a900de
:020000040000fa
:040a500032e4a900e3
:020000040000fa
:040a4c0031e4a900e8
:020000040000fa
:040a480030e4a900ed
:020000040000fa
:040a44001424ef0087
:020000040000fa
:040a40006000b8009a
:020000040000fa
:040a340000000600b8
:020000040000fa
:040a30000000fe00c4
:020000040000fa
:040a2c0011e1a9002b
:020000040000fa
:040a280013e1a9002d
:020000040000fa
:040a24007601070050
:020000040000fa
:040a200007000700c4
:020000040000fa
:040a1c00f00088005e
:020000040000fa
:040a18000000e800f2
:020000040000fa
:040a140002003e009e
:020000040000fa
:040a1000808f500083
:020000040000fa
:040a0c00f0272100ae
:020000040000fa
:040a0800f100800079
:020000040000fa
:040a04004260b70095
:020000040000fa
:040a000000ceb30071
:020000040000fa
:0409d0000b003700e1
:020000040000fa
:0409cc00fcff3a00f2
:020000040000fa
:0409c800014060008a
:020000040000fa
:0409c40001ceb300ad
:020000040000fa
:0409c00000c4bf00b0
:020000040000fa
:0409bc000164b6001c
:020000040000fa
:0409b800054078007e
:020000040000fa
:0409b4009860a8009f
:020000040000fa
:0409b0000c24a8006b
:020000040000fa
:0409ac000a24a90070
:020000040000fa
:0409a8008860a900ba
:020000040000fa
:0409a4008de3a80037
:020000040000fa
:0409a000811c88002e
:020000040000fa
:04099c00a01c880013
:020000040000fa
:0409980000442000f7
:020000040000fa
:04099400b21c880009
:020000040000fa
:04099000701c88004f
:020000040000fa
:04098c002002200025
:020000040000fa
:040988008c63b600c6
:020000040000fa
:0409840003407800b4
:020000040000fa
:040980008ce3b7004d
:020000040000fa
:04097c000054a00083
:020000040000fa
:0409780004406000d7
:020000040000fa
:040974008cc3bf0071
:020000040000fa
:040970008da3a900aa
:020000040000fa
:04096c008dc3a9008e
:020000040000fa
:0409680081e3a8007f
:020000040000fa
:04096400211c8800ca
:020000040000fa
:04096000017c2000f6
:020000040000fa
:04095c00401c8800b3
:020000040000fa
:040958002044200017
:020000040000fa
:04095400521c8800a9
:020000040000fa
:040950007200200011
:020000040000fa
:04094c00101c8800f3
:020000040000fa
:040948006004200027
:020000040000fa
:040944008063b60016
:020000040000fa
:0409400003407800f8
:020000040000fa
:04093c00c3cfb30072
:020000040000fa
:0409380080e3b700a1
:020000040000fa
:040934000054a000cb
:020000040000fa
:04093000044060001f
:020000040000fa
:04092c00f4ccb30054
:020000040000fa
:0409280080c3bf00c9
:020000040000fa
:0409240081a3a80003
:020000040000fa
:0409200081c3a900e6
:020000040000fa
:04091c000764b600b6
:020000040000fa
:04091800f0c1b30077
:020000040000fa
:040914001064b600b5
:020000040000fa
:0409100000ccb30064
:020000040000fa
:04090c001064b600bd
:020000040000fa
:04090800f0c3b30085
:020000040000fa
:0409040012e4b70042
:020000040000fa
:040900000014a0003f
:020000040000fa
:0408fc000540600053
:020000040000fa
:0408f80012c4bf0067
:020000040000fa
:0408f40013e4b70052
:020000040000fa
:0408f0000014a00050
:020000040000fa
:0408ec000540600063
:020000040000fa
:0408e80085cfb30005
:020000040000fa
:0408e40013c4bf007a
:020000040000fa
:0408e00012e4a80076
:020000040000fa
:0408dc0012e4b7006b
:020000040000fa
:0408d8000044a00038
:020000040000fa
:0408d400014060007f
:020000040000fa
:0408d000f9c050001b
:020000040000fa
:0408cc0012c4bf0093
:020000040000fa
:0408c800d1e6b700be
:020000040000fa
:0408c4000044a0004c
:020000040000fa
:0408c0000140600093
:020000040000fa
:0408bc00d1c6bf00e2
:020000040000fa
:0408b800b4e6b700eb
:020000040000fa
:0408b4002041b3002c
:020000040000fa
:0408b00001406000a3
:020000040000fa
:0408ac0001ceb300c6
:020000040000fa
:0408a800b4c6bf0013
:020000040000fa
:0408a4002ca3ef0092
:020000040000fa
:0408a000fdff320026
:020000040000fa
:04089c000058a3005d
:020000040000fa
:0408980042c7bf0094
:020000040000fa
:04089400fbff3a002c
:020000040000fa
:04089000814f500044
:020000040000fa
:04088c0001c3b300f1
:020000040000fa
:040888000047b20073
:020000040000fa
:0408840043c7bf00a7
:020000040000fa
:040880008249780031
:020000040000fa
:04087c008149780036
:020000040000fa
:04087800804978003b
:020000040000fa
:0408740023742000c9
:020000040000fa
:040870006004200000
:020000040000fa
:04086c0071052000f2
:020000040000fa
:04086800120020005a
:020000040000fa
:04086400824978004d
:020000040000fa
:040860008149780052
:020000040000fa
:04085c008049780057
:020000040000fa
:0408580033742000d5
:020000040000fa
:0408540080072000f9
:020000040000fa
:04085000a1092000da
:020000040000fa
:04084c003200200056
:020000040000fa
:0408480044e7b700ca
:020000040000fa
:040844000064a000ac
:020000040000fa
:04084000f043b200cf
:020000040000fa
:04083c0044c7bf00ee
:020000040000fa
:0408380044e7b700da
:020000040000fa
:040834000014a0000c
:020000040000fa
:040830000140600023
:020000040000fa
:04082c0001ceb30046
:020000040000fa
:0408280044c7bf0002
:020000040000fa
:04082400303a8800de
:020000040000fa
:04082000e0012000d3
:020000040000fa
:0408180000000600d6
:020000040000fa
:0408140000000000e0
:020000040000fa
:0408100000200400c0
:020000040000fa
:04080c0004000700dd
:020000040000fa
:0408080001003a00b1
:020000040000fa
:040804000028a30025
:020000040000fa
:04080000c3c2bf00b0
:020000040000fa
:020000040002f8
:104800000000000021100000422000006330000082
:1048100084400000a5500000c6600000e770000062
:1048200008810000299100004aa100006bb100003e
:104830008cc10000add10000cee10000eff100001e
:1048400031120000100200007332000052220000fa
:10485000b552000094420000f7720000d6620000da
:1048600039930000188300007bb300005aa30000b6
:10487000bdd300009cc30000fff30000dee3000096
:1048800062240000433400002004000001140000f2
:10489000e6640000c7740000a444000085540000d2
:1048a0006aa500004bb500002885000009950000ae
:1048b000eee50000cff50000acc500008dd500008e
:1048c000533600007226000011160000300600006a
:1048d000d7760000f666000095560000b44600004a
:1048e0005bb700007aa70000199700003887000026
:1048f000dff70000fee700009dd70000bcc7000006
:10490000c4480000e558000086680000a778000051
:104910004008000061180000022800002338000051
:10492000ccc90000edd900008ee90000aff900000d
:1049300048890000699900000aa900002bb900000d
:10494000f55a0000d44a0000b77a0000966a0000c9
:10495000711a0000500a0000333a0000122a0000c9
:10496000fddb0000dccb0000bffb00009eeb000085
:10497000799b0000588b00003bbb00001aab000085
:10498000a66c0000877c0000e44c0000c55c0000c1
:10499000222c0000033c0000600c0000411c0000c1
:1049a000aeed00008ffd0000eccd0000cddd00007d
:1049b0002aad00000bbd0000688d0000499d00007d
:1049c000977e0000b66e0000d55e0000f44e000039
:1049d000133e0000322e0000511e0000700e000039
:1049e0009fff0000beef0000dddf0000fccf0000f5
:1049f0001bbf00003aaf0000599f0000788f0000f5
:104a000088910000a9810000cab10000eba100005c
:104a10000cd100002dc100004ef100006fe100003c
:104a200080100000a1000000c2300000e320000060
:104a30000450000025400000467000006760000040
:104a4000b983000098930000fba30000dab30000d4
:104a50003dc300001cd300007fe300005ef30000b4
:104a6000b102000090120000f3220000d2320000d8
:104a700035420000145200007762000056720000b8
:104a8000eab50000cba50000a895000089850000cc
:104a90006ef500004fe500002cd500000dc50000ac
:104aa000e2340000c3240000a014000081040000d0
:104ab00066740000476400002454000005440000b0
:104ac000dba70000fab7000099870000b897000044
:104ad0005fe700007ef700001dc700003cd7000024
:104ae000d3260000f236000091060000b016000048
:104af0005766000076760000154600003456000028
:104b00004cd900006dc900000ef900002fe900002b
:104b1000c8990000e98900008ab90000aba900002b
:104b2000445800006548000006780000276800002f
:104b3000c0180000e108000082380000a32800002f
:104b40007dcb00005cdb00003feb00001efb0000a3
:104b5000f98b0000d89b0000bbab00009abb0000a3
:104b6000754a0000545a0000376a0000167a0000a7
:104b7000f10a0000d01a0000b32a0000923a0000a7
:104b80002efd00000fed00006cdd00004dcd00009b
:104b9000aabd00008bad0000e89d0000c98d00009b
:104ba000267c0000076c0000645c0000454c00009f
:104bb000a23c0000832c0000e01c0000c10c00009f
:104bc0001fef00003eff00005dcf00007cdf000013
:104bd0009baf0000babf0000d98f0000f89f000013
:104be000176e0000367e0000554e0000745e000017
:104bf000932e0000b23e0000d10e0000f01e000017
:104c0000080800000800000001000000000000008b
:104c10000608000002010000010000008c200000d6
:104c200002080000040200000100000090200000c3
:104c30000008000001030000010000000000000067
:104c40000000000000000000000000000000000064
:104c50003e0800000400000000000000000000000a
:104c600000000000000000006e0d00004d45000037
:104c7000474100002d5000004c540000000000008f
:104c80000000000000000000000000000000000024
:104c90000000000000000000000000000000000014
:104ca0000000000000000000000000000000000004
:104cb0000000000000000000000000004d41000066
:084cc0004d410000000000005e
:020000040000fa
:020000040002f8
:104cc800881f780008812000004ceb00101020009d
:104cd800262e02000000000080407800e14f4000ce
:104ce8000700320001007800f007b2005010880079
:104cf800014c780001407800da270200000000002b
:104d0800e0902d00b14324004040880051408800c5
:104d1800b0b22b0051e42300604088007140880045
:104d2800200320003040880000002000812c24004f
:104d3800104088002140880011c0b3000080200086
:104d4800014878004f04780000000600a042800067
:104d5800b142800061024000e0824800a44288001d
:104d6800b5428800624280000200e000160032006e
:104d7800404280000000e000020032000000e9002c
:104d8800100037000200e90040428800208420001b
:104d98001004e0000a0032003443880045438800cc
:104da800f1428000408620008038020001000000a7
:104db8000004e00004003200500020000100370029
:104dc8001000200040428800704280000000e0008f
:104dd8002a003200514280000100e0000200320047
:104de8000100e9001b0037000000e900504288007c
:104df8002284200012407800e34f500017003a0048
:104e0800014978003042800020428800a04280009a
:104e1800b1428000b0478800c14788000143800044
:104e2800408f200080814000028520000300090097
:104e3800b25978004300b1004200b100e48040005c
:104e480080380200010000000004e0000b0032007e
:104e5800500020005042880000000600e14f50003a
:104e680004003a0020c0b3000049780031428000b5
:104e780021428800100020005042880000000600ef
:104e88003600f800809fbe00829fbe00849fbe004f
:104e9800869fbe003400f80020c0b300a00188003f
:104ea8008460a900b0d880000000e800b0d888006d
:104eb800a6ff07003400f9004f03be004f02be00f2
:104ec8004f01be004f00be003600f900004006004a
:104ed8002838020001000000e24f50000f003200a5
:104ee8003c38020001000000e24f50000b00320085
:104ef8002838020001000000e14f5000070032008e
:104f08003c38020001000000e14f5000030032006d
:104f18000005040000000000000005001000050066
:104f2800a0d880000000e00004003200e8ff07007d
:104f38000004e00001003a000000fe000000060046
:104f4800f0e124001008880000fd2f000008880008
:104f58000040e9000461b60000c7b300a560b700cf
:104f68008460a9009460a80005e1a800000006007c
:104f7800881f78001040800021408000e00f50001a
:104f8800e08f580003003200e10f4000e08f480036
:104f980004003a0000002000812c24001040880002
:104fa800214088001040800021408000020020003d
:104fb800833c2400a6200200000000000000e0005e
:104fc80002003a00f002200009003700104080007b
:104fd8002140800002002000832c2400a62002002b
:104fe800000000000000e00003003a00500c200020
:104ff80020108800260037001240800023408000df
:1050080000002400c1692400aa200200000000005a
:1050180002002000030424002e21020000000000ea
:10502800ea21020000000000e10f500002003e00eb
:10503800200020000400370001202000810f5000cc
:105048000100360001007800201088006304400049
:105058006140b90020220200000000000800e000c2
:1050680004003d00020020000378240030210200e3
:10507800000000000001be0000002400c1692400f7
:10508800aa2002000000000010408800214088008b
:105098000000eb004f047800000006000000060046
:1050a8000001eb0000102a00a1102100e070790037
:1050b8000201e80000102000800f5100f9ff3a00bb
:1050c8006110200040102100503804000100000049
:1050d800889fbe000004be00f24280001243880090
:1050e80063002000040037004186200040102100a2
:1050f80061f079008301e800828f5100faff3900de
:1051080082007800401021005038020001000000a1
:10511800e48f540006003a004086200018487800c2
:1051280018009000604288000000e90040428800b2
:105138004f04be000000060002002a008000eb00b9
:10514800a010210062f078008100e80000402000f3
:10515800808f5000faff3a00614020004010210083
:1051680050380400010000008081e80013417800f5
:10517800e34f510015003e00b04090000104e000ec
:1051880012003a00401021006240980071409800d7
:105198001380fb004a00dd000100290001014000e6
:1051a8008000eb00c010210062f078008100e80068
:1051b80000402000808f5000faff3a008140200014
:1051c80040102100503802000100000000000600d5
:1051d800889fbe000004be00014380001143880080
:1051e8006200200003003700408f2000e071790042
:1051f8000201e80043102100810f5100faff390035
:10520800838040000085200090487800104190007d
:105218009240980020419000a240980030409000b1
:10522800b040980011438000e480400003007800fb
:105238005038020001000000e68f540006003a00d2
:10524800408f20001848780028009000704288009d
:105258000000e900504288004f04be00000006002c
:105268008080e80011407800e14f50000e003e00b9
:105278004210210060419800802080009180fb004e
:10528800f003b200808f50000300320011c0b30059
:105298001081200001487800710020000200780089
:1052a800503802000100000000000600c0428000e3
:1052b80050888800810020004010210050380400e8
:1052c80001000000d0428000508888008100200042
:1052d8004010210050380400010000000400fa00ca
:1052e800889fbe008a9fbe008c1f78000006780049
:1052f800c203200003002000b0408000c1408000ad
:1053080076220200000000000004be00d0408000a9
:10531800e140800090bf9f00a1bf9f00c203200012
:105328000300200076220200000000000005be00f5
:10533800c203200003002000b0408000c14080006c
:105348009622020000000000004e780018469800df
:105358004844de0028469800c203200003002000cd
:105368001fb89700afb8970096220200000000000f
:10537800304698004a4698004855de005a4698003c
:105388004f0678004f05be004f04be000080fa00ab
:105398000000060010009000c04288005088880075
:1053a8008100200040102100503802000100000058
:1053b8002200260021c0b30080852000602e020054
:1053c800000000004c2e0200000000000004e00075
:1053d800fcff3a0000000600a0102100bfff0700f4
:1053e800c1002000401021005038020001000000d8
:1053f800618120008018eb008018eb00a08320005a
:10540800808f5000fbff3a008200260041c2b300a3
:1054180060812000602e0200000000004c2e020077
:10542800000000000004e000fcff3a000000060055
:105438004200210021002000a08520009a2e0200b1
:1054480000000000220026002100200080852000a6
:105458009a2e0200000000004200260041002000b1
:10546800a08320009a2e020000000000d041800096
:10547800e141800061004000e0804800d0418800a0
:10548800e14188004200260041c0b300a08320000b
:10549800602e0200000000004c2e020000000000f8
:1054a8000004e000fcff3a0000000600820026002d
:1054b80041022000608120009a2e040000000000b4
:1054c8000200fa00889fbe008a1f7800c2022600e8
:1054d80021002000688057009a2e0200000000007a
:1054e80000402000cfb89700808f5000020036009f
:1054f8000000eb00c0bf9f00401021008ff897000c
:10550800614098009ff8970071409800ca102100e8
:105518004fbc970007003700020426008900780076
:105528000a0078009a2e020000000000fa0fb0006e
:1055380009045400f90f2000890f5400f6ff3e00bb
:105548000800e00005003200020426008800780008
:105558000a0078009a2e0200000000004fb8970059
:10556800e80040004010210050380200010000000f
:105578004f0578004f04be000080fa0000000600c6
:1055880005002900c300dd00018042003042900080
:105598000001eb0000812000904f5200070032000c
:1055a800648040008041eb00e0c07a00044078004d
:1055b8001e440200010000000081fb000200780088
:1055c80000000600881f780003002900c300dd00e2
:1055d800018041003041900000812000904f51002f
:1055e8000f003a0048a1210040c0b300004c7800e9
:1055f8001244980064804000e0c179002344980078
:1056080008007800043102000000000030449800cf
:10561800080078005e2b020000000000040037003c
:1056280041a12100024078007644020001000000f8
:105638000080fb004f047800000006000400fa0018
:10564800889fbe008a9fbe00e242800005003700a6
:10565800e14f400002003a000001eb000100370072
:105668000201e8004310dd0041002900010040006c
:10567800104090000004e000f5ff3500238420006e
:10568800e24288008080fb004608de00e1446000ba
:105698000904a200708060000c003200934078007a
:1056a800014078000014a2000080fb000000ea001e
:1056b8004f00de00004478000804a200e2cf50004a
:1056c8000b0036008044eb000900370011c0b3001e
:1056d80093cf100004003600804278000044780020
:1056e800804478000800370018c0b3000300370072
:1056f8008042eb000004e00003003a00020078005a
:105708009fff070080427800e342800002002900e2
:10571800c318dd000100410070429000e14f4200d3
:10572800060032000804e00004003200610079003d
:105738004186200001004000654098000904e0000f
:105748000f003200010029004318dd006081780055
:105758000080e800010040001080fb0000004100cc
:10576800e700400000438000810f50000100310035
:1057780001438800408f20000000410065409800e8
:105788000504e000f9003a000804e00002003a00cd
:1057980008417800030037000300780089ff0700fc
:1057a800004178000904e00007003200e042800070
:1057b8004300dd000100290060807800418f20004f
:1057c8000100400062409800e74280000300290081
:1057d800c338dd0001804100f0429000e1cf420073
:1057e800060032000804e0000400320061807900fd
:1057f8004186200001004000624098000204e00059
:10580800dc003a000804e000da0032000904e00095
:1058180018003200c338dd002000290061447800f8
:105828000003eb0010003700030029004338dd00b7
:105838000182fb00e0807900428f200002014200d3
:105848000101410066004000030040001080fb0099
:10585800040040006300400041a12100e0c078003e
:10586800714198000603e80086407800884f53008d
:10587800edff3900e1cf4200be0032008582fb0017
:105888001000200001002000050178000201e90055
:10589800030033000000400081804800fbff370010
:1058a8000080ea008180ea00824280009342800002
:1058b8000002610001806100800078000400780027
:1058c80080428800914288004338dd006100290049
:1058d800010040009084fb0070a121000081440079
:1058e800ec805700b258780068805700808f5000cd
:1058f800fcff3a00c338dd0020002900614478002d
:105908000003eb000b0037000081fb00e3007a0086
:105918004086200000004100010040000281440050
:105928006301410041a12100e2c078007140980064
:105938000603e8000640780004002900c339dd00aa
:10594800884f5300f0ff39000880fb00e3007a001d
:1059580001004000e7004000f0428000810f500045
:1059680001003100f14288000300420050409000dd
:105978006f006000e40f5000430032000b003c0051
:10598800e10f50002800320003003c000000e00056
:105998001100320077003700e20f50002d0032006e
:1059a800e30f500073003a0035003700ea0f50004b
:1059b8004e00320003003c00e90f50006d003a0031
:1059c8003f003700eb0f500053003200ec0f50003f
:1059d80068003a00570037002fbc9700bfbc9700fb
:1059e8000b002a00432ddd000b004500200190002c
:1059f800b00190000800be00a620020000000000d0
:105a08000000e0006f0035000b0045001001be00eb
:105a18000800be009c220200000000000000e00018
:105a280068003c00530037004ff1970003002a003c
:105a3800c328dd006480400003004000904f5100ff
:105a48006000390003804000904f51005d003e0027
:105a5800480037002fb9970003002a00c328dd004b
:105a68006480400060807900800f51005500390043
:105a780061807900800f510052003e003d003700e0
:105a88000040eb00f0f79f002fb99700bfb99700cf
:105a980004002a00c328dd006480400004004000a0
:105aa800b00f5100a08f5900460039000480400013
:105ab800b00f5100a08f590042003e002d00370062
:105ac8004ff1970003002a00c328dd0064804000de
:105ad80003004000904f51003a0035000380400019
:105ae800904f510037003c00220037002fb9970033
:105af80003002a00c328dd0064804000608079002c
:105b0800800f51002f00350061807900800f51000f
:105b18002c003c00170037000040eb00f0f79f0016
:105b28006ff097000004e00002003d0000c0eb00a9
:105b3800f0f79f002fb99700bfb9970004002a001b
:105b4800c328dd006480400004004000b00f51000d
:105b5800a08f59001b00350004804000b00f510091
:105b6800a08f590017003c0002003700e14f4200a7
:105b780014003a00e142800020428000808f5000eb
:105b880007003a0022842000124078000004e00058
:105b980002003200e24f500001003a000049e800dc
:105ba800314288008100e800e1428800002020009e
:105bb800808f500014003a000000eb00e04288009b
:105bc80011003700e04280004300dd006100290039
:105bd80001004000104190000281fb0010002000ed
:105be800010020000201e90003003300000040002a
:105bf80081804800fbff37000285200012097000f1
:105c080052897000dbff37004f05be004f04be000d
:105c18000080fa0000000600889fbe008a9fbe0030
:105c28008c9fbe00a11021008058eb0040912100fc
:105c3800808f5000fcff3a0060002000104388006d
:105c48008005eb000a002900290037000004e00065
:105c580022003d000a80e8009086fb001a8046007a
:105c6800e700400010438000810f50000100310020
:105c7800114388000b00780041fe07004c102100fa
:105c88009a0478000c844400604498000004e00002
:105c980012003a000b0078004afe070060449800a2
:105ca8000004e0000d003a00678044008c014000c9
:105cb8000001eb00070037006a4090000080fb00fd
:105cc800020040006300400041a12100e0d97800b3
:105cd8000201e8008d0f5100f7ff39008b05e8003d
:105ce8006805450000202000808f55000300320021
:105cf8005a409000e14f4000d4ff3a00481021007c
:105d0800104380000800400074fd07001143800024
:105d1800e6804000080078005038020001000000ca
:105d28004f06be004f05be004f04be00000006002f
:105d3800889fbe0000027800e4c15000e88f500040
:105d480001003600e6c150000484e800984278005b
:105d58000081200090cf520019003a004010210025
:105d6800e4c04100614098001844780078409800e9
:105d7800b44090000148980030002000020037002d
:105d8800e4747c00080078000004e800e300500098
:105d98000380fb0099102100808f5000f8ff350028
:105da800a0102100043102000000000000f47c0073
:105db800a01021005e2b0200000000000c0037003c
:105dc80064014200b4409000054078001e4402007f
:105dd80001000000804078000004e00007003a005d
:105de800a11021001840780076440200010000004c
:105df800804078000004e0000400320040102100d8
:105e08006140980070002000040037004010210015
:105e1800604090000080fb0066004000104388004e
:105e2800114380004010210050380200010000009a
:105e38004f04be00000006004a00dd006101b90001
:105e4800000021001100200002004000838048006b
:105e5800801f780001007800900188004f007800ca
:105e6800000078000008bb0020042400003b8800e4
:105e78004200f800000e20004220b7005005200024
:105e8800303b8800a00a2000303b880061e7a8006a
:105e980000000000000000004200f90000000600b9
:105ea8004200f800801f7800000e20004220b70052
:105eb8004f0078004a00dd006102b9008180fb00d4
:105ec800c708dd006108b900040240008582480067
:105ed80000002100110020000400400085804800d7
:105ee800801f780001007800900188004f0078003a
:105ef80000007800030420008200780002002000df
:105f08003108bb000298bb008301e900fcff3a009e
:105f180010002400003b880050052000303b88001a
:105f2800a00a2000303b880061e7a80000000000bc
:105f3800000000004200f90000000600889fbe0033
:105f48008a1f78000045780001047800baff07002e
:105f58008004eb0008017800894078000a40780046
:105f6800cfff07008904e8000808b000e88f540054
:105f7800f8ff3a004f0578004f04be000000060005
:105f88008080e80040c0b300ecff0700401021000b
